:100000000C944E010C947F010C947F010C947F01A1
:100010000C947F010C947F010C947F010C947F0160
:100020000C947F010C947F010C947F010C947F0150
:100030000C947F010C947F010C947F010C947F0140
:100040000C947F010C947F010C947F010C947F0130
:100050000C947F010C947F010C947F010C947F051C
:100060000C947F010C94D2080C9408090C947F0125
:100070000C947F010C947F010C947F010C947F0100
:100080000C947F010C947F010C947F010C947F01F0
:100090000C947F010C947F010C947F010C944E040E
:1000A0000C947F010C947F010C947F010C947F01D0
:1000B0000C947F010C947F010C947F010C947F01C0
:1000C0000C947F010C947F010C947F010C947F01B0
:1000D0000C947F010C947F010C947F010C947F01A0
:1000E0000C947F01B406B706A606AA06B006EE0673
:1000F000BB06BF06C506C906CD06D306D706DB0676
:10010000EE06E106E506E9060C9469070C94B006D4
:100110000C94BF060C94E1060C94C8020C945E0784
:100120000C948B070C949E020C94C9020C94F6025A
:100130000C94D7060C94BB060C94A6020C941902DE
:100140000C940B080C94EE060C9477070C94E906BB
:100150000C94E9070C943C090C94C9060C94D30642
:100160000C94CD060C948F090C94A6060C94B4063E
:100170000C94DB060C94B9020C946C030C94E50609
:100180000C94B7060C9432090C94C5060C94AA067C
:1001900000000A0B02090C0D0E0807030401000001
:1001A000000000000000000000000000000000004F
:1001B000000000000000000000000000121110000C
:1001C000000000000000000000000000000000002F
:1001D000000000000000010210202008081020404C
:1001E00010204080020102010804020101020408FB
:1001F0001020408080402010080402018004020189
:1002000080402010080402010804020101020408D1
:1002100010204080010204081020408005050505DB
:10022000070508080808020202020A0A080804046E
:10023000040401010101010101010303030303039C
:100240000303040707070C0C0C0C0C0C0C0C02022B
:10025000020206060606060606060B0B0B0B0B0B28
:100260000B0B00002200250028002B002E0031007F
:10027000340002010000050108010B01000021000B
:10028000240027002A002D00300033000101000067
:10029000040107010A0119026C033C0911241FBE65
:1002A000CFEFD1E2DEBFCDBF00E00CBF12E0A0E097
:1002B000B2E0E4ECFBE100E00BBF02C007900D925E
:1002C000A837B107D9F723E0A8E7B2E001C01D9233
:1002D000A13EB207E1F712E0CCE9D2E000E006C0AF
:1002E00022970109FE010BBF0E94DC0DC639D10720
:1002F00080E00807A9F70E9480090C94E00D0C9497
:10030000000026E040E855E260E070E084E493E01D
:100310000E94700861E0809100020E94EF0663E095
:1003200072E084E493E00E94EA0988E792E00C948A
:10033000210280E00E94760690937A0280937902EF
:100340004AE050E0BC0184E493E00E949F0A6AE125
:1003500072E084E493E00E94EA098091790290912E
:100360007A02853F914014F061E001C060E0809125
:1003700000020E9428076EE172E084E493E00E948C
:10038000CD0988E792E00E949B02AB01BC0122E00C
:1003900030E084E493E00E94920B69E272E084E42E
:1003A00093E00E94CD0988E792E00E949802AB0199
:1003B000BC0122E030E084E493E00E94920B66E30B
:1003C00072E084E493E00E94EA096EE172E084E462
:1003D00093E00E94CD0988E792E00E948202AB017F
:1003E000BC0122E030E084E493E00E94920B69E3D8
:1003F00072E084E493E00E94CD0988E792E00E94D5
:100400006C02AB01BC0122E030E084E493E00E9486
:10041000920B66E472E084E493E00E94EA0984E4CB
:1004200093E00E94D60968EE73E080E090E00C94BF
:10043000EC056AE588E792E00C941E02FC016083FB
:1004400008958BE792E00E94350381E008951F93A1
:10045000CF93DF93EC01162F68818BE792E00E9427
:100460004F03612F8BE792E00E94F60260E08BE77A
:1004700092E00E94590343E068818BE792E00E947A
:100480004C038BE792E00E94A602EC018BE792E01E
:100490000E94A60220E030E0382FC22BD32B8BE73E
:1004A00092E00E94A602CE01DF91CF911F910895A4
:1004B0000E942702BC0180E090E00E94970C2AE095
:1004C00037ED43EA5CE30E944D0D23E333E948E84E
:1004D00053E40E94950B089567E00E94580220E0C3
:1004E00030E040E151E40E944D0D20E030E040EA70
:1004F00050E40E94FE0B20E030E040E052E40E9415
:10050000960B089566E00E94580220E030E040E13A
:1005100051E40E944D0D20E030E040EA50E40E949A
:10052000FE0B20E030E040E052E40E94960B08957C
:1005300067E00C94580266E00C9458028091AB027C
:1005400090E02091AC02821B910908952091AC02A9
:100550008091AB02281750F4E22FF0E0E355FD4FF5
:10056000808190E02F5F2093AC0208958FEF9FEF82
:100570000895E091AC028091AB02E81730F4F0E00E
:10058000E355FD4F808190E008958FEF9FEF089530
:100590000895CF92DF92EF92FF920F931F93CF9324
:1005A000DF937C01CB018A0120918702222389F00D
:1005B000EB016B01C40ED51ECC15DD0569F0699108
:1005C000D701ED91FC910190F081E02DC7011995C3
:1005D000F3CF642F0E942504C801DF91CF911F91B2
:1005E0000F91FF90EF90DF90CF900895CF93DF931E
:1005F0001F92CDB7DEB76983209187022223D1F005
:1006000020918802203240F021E030E0FC01338369
:10061000228380E090E015C080918902E82FF0E00D
:10062000E657FD4F998190838F5F80938902809375
:10063000880205C061E0CE0101960E94250481E098
:1006400090E00F90DF91CF910895FC011382128208
:1006500048EE53E060E070E044835583668377831F
:100660008DE492E09183808308951092AC02109201
:10067000AB0210928902109288020C947003862FAC
:10068000413208F040E26DEA72E00E948E0310925F
:10069000AC028093AB02089521E00C943F0381E00B
:1006A000809387026093AA021092890210928802B6
:1006B00008950F93062F21E0409188026AE872E0C6
:1006C0008091AA020E94D20310928902109288029D
:1006D000109287020F9108958BE792E00C94250306
:1006E00010923A0381E0809338031092370361E05F
:1006F00084E10E94280761E085E10E942807E9EB78
:10070000F0E080818E7F808380818D7F808388E48C
:100710008093B80085E48093BC000895413208F0CE
:100720003FC090913A039111FCCF91E090933A032E
:10073000209338032FEF2093CD0210921203240F41
:10074000209311039093390390913903880F892BDB
:100750008093390380913703813041F4109237033D
:10076000809139038093BB0085EC01C085EE8093B6
:10077000BC0080913A038130E1F380911203841729
:1007800010F44091120323E133E0FB01D9018A2FD9
:10079000821B841718F48D918193F9CF842F0895CB
:1007A00080E008950F93413208F046C090913A03DB
:1007B0009111FCCF92E090933A03009338039FEF9E
:1007C0009093CD021092120340931103FB0163E159
:1007D00073E0DB019A2F961B941718F491919D9367
:1007E000F9CF1092390390913903880F892B8093A8
:1007F000390380913703813041F41092370380919F
:1008000039038093BB0085EC01C085EE8093BC006A
:10081000222321F080913A038230E1F38091CD02CE
:100820008F3F61F08091CD02803251F08091CD02F6
:10083000803341F483E007C081E005C080E003C05D
:1008400082E001C084E00F910895613298F4209114
:100850003A03243089F46093EF02FC0181EF92E0C7
:10086000DC012A2F281B261718F421912D93F9CF8C
:1008700080E0089581E0089582E0089585ED8093F9
:10088000BC008091BC0084FDFCCF10923A03089517
:1008900085EC8093BC0010923A0308951F920F924A
:1008A0000FB60F9211240BB60F922F933F934F93D5
:1008B0005F936F937F938F939F93AF93BF93EF93C8
:1008C000FF938091B900887F803609F49CC068F559
:1008D000883209F45BC090F4803109F454C038F4D4
:1008E000882309F4F5C0883009F44DC0F5C088317B
:1008F00009F44CC0803209F45DC0EEC0803409F4C4
:1009000068C048F4803309F455C0883309F0E4C066
:100910008093CD02A8C0803509F44FC0883509F412
:100920005DC0883409F0D8C0D5C0883909F4C6C084
:10093000A8F4883709F467C038F4883609F463C02E
:10094000803709F460C0C8C0883809F4B7C080395E
:1009500009F45FC0803809F0BFC05BC0803B09F478
:1009600085C038F4803A09F466C0883A09F47EC03C
:10097000B3C0803C09F4A6C0883C09F4A3C0883BFE
:1009800009F489C0A9C08091390310C09091120365
:1009900080911103981770F5E091120381E08E0F9A
:1009A00080931203F0E0ED5EFC4F80818093BB00EA
:1009B00085EC85C08093CD028DC0E091120381E06B
:1009C0008E0F809312038091BB00F0E0ED5EFC4F30
:1009D000808390911203809111036DC0E091120306
:1009E00081E08E0F809312038091BB00F0E0ED5EFA
:1009F000FC4F80838091380381116CC081E080932B
:100A0000370384EA60C083E080933A031092CE02F9
:100A1000CFCF8091CE02803208F050C0E091CE025C
:100A200081E08E0F8093CE028091BB00F0E0E15315
:100A3000FD4F8083BDCF8091CE02803230F4E091B3
:100A4000CE02F0E0E153FD4F10820E943E0460911F
:100A5000CE0270E0E0913303F09134038FEC92E02A
:100A600019951092CE020E94480436C084E080930B
:100A70003A031092F0021092EF02E0913503F091E8
:100A8000360319958091EF02811105C081E08093B2
:100A9000EF021092F102E091F00281E08E0F80935C
:100AA000F002F0E0EF50FD4F80818093BB00909109
:100AB000F0028091EF02981708F47ACF85E88093CE
:100AC000BC000AC085EC8093BC0010923A0304C0BD
:100AD0001092CD020E943E04FF91EF91BF91AF9121
:100AE0009F918F917F916F915F914F913F912F9146
:100AF0000F900BBE0F900FBE0F901F9018951F9276
:100B00000F920FB60F9211242F933F938F939F93C1
:100B1000AF93BF9380913C0390913D03A0913E031E
:100B2000B0913F0330913B0323E0230F2D3720F496
:100B30000196A11DB11D05C026E8230F0296A11D37
:100B4000B11D20933B0380933C0390933D03A093FE
:100B50003E03B0933F038091400390914103A091E5
:100B60004203B09143030196A11DB11D8093400340
:100B700090934103A0934203B0934303BF91AF917D
:100B80009F918F913F912F910F900FBE0F901F90CB
:100B900018953FB7F8948091400390914103A0913C
:100BA0004203B091430326B5A89B05C02F3F19F01F
:100BB0000196A11DB11D3FBF6627782F892F9A2F5F
:100BC000620F711D811D911D42E0660F771F881F06
:100BD000991F4A95D1F70895CF92DF92EF92FF9235
:100BE000CF93DF936B017C010E94C905EB01C11417
:100BF000D104E104F10489F00E94940B0E94C9051C
:100C00006C1B7D0B683E734090F381E0C81AD108DD
:100C1000E108F108C851DC4FEACFDF91CF91FF9096
:100C2000EF90DF90CF900895789484B5826084BD72
:100C300084B5816084BD85B5826085BD85B58160E0
:100C400085BDEEE6F0E0808181608083E1E8F0E040
:100C50001082808182608083808181608083E0E86F
:100C6000F0E0808181608083E1EBF0E0808184604E
:100C70008083E0EBF0E0808181608083E1E9F0E057
:100C8000808182608083808181608083E0E9F0E000
:100C9000808181608083E1EAF0E0808182608083EE
:100CA000808181608083E0EAF0E0808181608083E0
:100CB000E1E2F1E0808182608083808181608083D5
:100CC000E0E2F1E0808181608083EAE7F0E080810A
:100CD0008460808380818260808380818160808362
:100CE0008081806880831092C1000895863308F067
:100CF000865320917B00982F9870277F922B90939A
:100D00007B0087702091020290E4299F90011124BA
:100D1000822B80937C0080917A00806480937A009B
:100D200080917A0086FDFCCF809178002091790037
:100D300090E0922B089590E0FC013197E231F105AB
:100D400008F04CC0EE58FF4F0C94D60D80918000F7
:100D50008F7703C0809180008F7D809380000895FD
:100D600080918000877FF9CF84B58F7702C084B5EA
:100D70008F7D84BD08958091B0008F7703C08091EE
:100D8000B0008F7D8093B0000895809190008F77A0
:100D900007C0809190008F7D03C080919000877F75
:100DA0008093900008958091A0008F7707C0809174
:100DB000A0008F7D03C08091A000877F8093A0005A
:100DC0000895809120018F7707C0809120018F7D49
:100DD00003C080912001877F809320010895CF93E5
:100DE000DF9390E0FC01EA52FE4F2491FC01E45EA7
:100DF000FD4F8491882349F190E0880F991FFC01F1
:100E0000E458FD4FA591B4918E599D4FFC01C591B9
:100E1000D4919FB7611108C0F8948C9120958223DA
:100E20008C93888182230AC0623051F4F8948C91AB
:100E3000322F309583238C938881822B888304C042
:100E4000F8948C91822B8C939FBFDF91CF91089562
:100E50000F931F93CF93DF931F92CDB7DEB7282F49
:100E600030E0F901E057FE4F8491F901EA52FE4F5C
:100E70001491F901E45EFD4F04910023C9F0882329
:100E800021F069830E949B066981E02FF0E0EE0F5C
:100E9000FF1FEE59FD4FA591B4919FB7F8948C9127
:100EA000611103C01095812301C0812B8C939FBFDA
:100EB0000F90DF91CF911F910F910895FC01818DCB
:100EC000228D90E0805C9F4F821B91098F73992740
:100ED0000895FC01918D828D981731F0828DE80F75
:100EE000F11D858D90E008958FEF9FEF0895FC012F
:100EF000918D828D981761F0828DDF01A80FB11D51
:100F00005D968C91928D9F5F9F73928F90E0089574
:100F10008FEF9FEF089582E399E0892B41F080E005
:100F200090E0892B21F00E943209811125C080E0D8
:100F300090E0892B41F080E090E0892B21F00E9425
:100F4000000081111CC080E090E0892B41F080E01E
:100F500090E0892B21F00E940000811113C080E0F5
:100F600090E0892BA1F080E090E0892B81F00E9435
:100F7000000081110AC008950E940000D8CF0E948D
:100F80000000E1CF0E940000EACF0C940000089519
:100F9000FC01848DDF01A80FB11DA35ABF4F2C9116
:100FA000848D90E001968F739927848FA689B789E5
:100FB0002C93A089B1898C9180648C93938D848DBE
:100FC000981306C00288F389E02D80818F7D80838D
:100FD0000895CF93DF93EC01888D8823C9F0EA89C7
:100FE000FB89808185FD05C0A889B9898C9186FD22
:100FF0000FC00FB607FCF5CF808185FFF2CFA8891F
:10100000B9898C9185FFEDCFCE010E94C807E7CF4B
:10101000DF91CF910895CF92DF92FF920F931F93AC
:10102000CF93DF931F92CDB7DEB76C01DC015B96E7
:101030009C915B975C968C915C97981307C0509637
:10104000ED91FC915197808185FD32C0F601038DB1
:1010500010E00F5F1F4F0F731127F02EF601848DE4
:10106000F81211C00FB607FCF9CFD6015096ED91DA
:10107000FC915197808185FFF1CFC60169830E9461
:10108000C8076981EBCF838DE80FF11DE35AFF4F4D
:101090006083D6015B960C935B975296ED91FC9121
:1010A000539780818062808381E058968C930DC035
:1010B000D6015696ED91FC91579760835096ED912D
:1010C000FC91519780818064808381E090E00F9053
:1010D000DF91CF911F910F91FF90DF90CF900895F6
:1010E000BF92CF92DF92EF92FF92CF93DF93EC010A
:1010F0006A017B01B22EE889F98982E0808341157B
:1011000081EE580761057105A1F060E079E08DE39B
:1011100090E0A70196010E94B40D215031094109C8
:1011200051095695479537952795211580E1380740
:1011300098F0E889F989108260E874E88EE190E01F
:10114000A70196010E94B40D2150310941095109AE
:101150005695479537952795EC85FD853083EE8527
:10116000FF852083188EEC89FD89B082EA89FB898E
:10117000808180618083EA89FB89808188608083A7
:10118000EA89FB89808180688083EA89FB89808184
:101190008F7D8083DF91CF91FF90EF90DF90CF9094
:1011A000BF9008951F920F920FB60F9211240BB6A5
:1011B0000F922F938F939F93EF93FF93E09154039C
:1011C000F09155038081E0915A03F0915B0382FD19
:1011D00012C0908180915D038F5F8F7320915E03B9
:1011E000821751F0E0915D03F0E0EC5BFC4F958FCE
:1011F00080935D0301C08081FF91EF919F918F915A
:101200002F910F900BBE0F900FBE0F901F9018954F
:101210001F920F920FB60F9211240BB60F922F93BD
:101220003F934F935F936F937F938F939F93AF936E
:10123000BF93EF93FF9384E493E00E94C807FF916C
:10124000EF91BF91AF919F918F917F916F915F913E
:101250004F913F912F910F900BBE0F900FBE0F90AB
:101260001F90189584E493E00E945E0721E0892B8B
:1012700009F420E0822F089510924703109246034C
:1012800088EE93E0A0E0B0E0809348039093490398
:10129000A0934A03B0934B038DE592E090934503EE
:1012A0008093440385EC90E0909351038093500326
:1012B00084EC90E0909353038093520380EC90E091
:1012C000909355038093540381EC90E090935703DF
:1012D0008093560382EC90E09093590380935803D7
:1012E00086EC90E090935B0380935A0310925D0329
:1012F00010925E0310925F031092600308950895A8
:101300000E9414060E947F090E948101CBE8D7E069
:101310000E9499012097E1F30E948B07F9CFCF92A9
:10132000DF92EF92FF920F931F93CF93DF936C01A5
:101330007A01EB01E60EF71E00E010E0CE15DF05A6
:1013400061F06991D601ED91FC910190F081E02D61
:10135000C6011995080F191FF1CFC801DF91CF9170
:101360001F910F91FF90EF90DF90CF90089561153E
:10137000710581F0DB010D900020E9F7AD014150CE
:101380005109461B570BDC01ED91FC910280F38162
:10139000E02D199480E090E008950C94B709DC01E9
:1013A000ED91FC910190F081E02D19940F931F9322
:1013B000CF93DF93EC016DE00E94CF098C016AE0CE
:1013C000CE010E94CF09800F911FDF91CF911F9115
:1013D0000F9108950F931F93CF93DF93EC010E9419
:1013E000B7098C01CE010E94D609800F911FDF91B1
:1013F000CF911F910F9108958F929F92AF92BF92BC
:10140000CF92DF92EF92FF920F931F93CF93DF93D0
:10141000CDB7DEB7A1970FB6F894DEBF0FBECDBF34
:101420007C01C42EE52FCB01D22E19A221E02D156F
:1014300010F02AE0D22E8E010F5D1F4F8D2C912CC3
:10144000A12CB12C6C2D7E2FA50194010E94B40D0E
:101450008C2DD29E80191124015011098A3014F468
:10146000805D01C0895CF80180832115310541054B
:10147000510521F0C22EE32FCA01E4CFB801C70104
:101480000E94B709A1960FB6F894DEBF0FBECDBF7C
:10149000DF91CF911F910F91FF90EF90DF90CF9050
:1014A000BF90AF909F908F900895CF92DF92EF9270
:1014B000FF920F931F93CF93DF93EC016A017B019F
:1014C0002115310579F4E881F9810190F081E02D51
:1014D000642FDF91CF911F910F91FF90EF90DF90DC
:1014E000CF9019942A303105E9F477FF1AC06DE2E4
:1014F0000E94CF098C0144275527BA014C195D0978
:101500006E097F092AE0CE010E94FC09800F911F1D
:10151000DF91CF911F910F91FF90EF90DF90CF90CF
:1015200008952AE0B701A601CE01DF91CF911F9166
:101530000F91FF90EF90DF90CF900C94FC099A01EF
:10154000AB01662757FD6095762F0C94550A4F9294
:101550005F926F927F928F929F92AF92BF92CF9243
:10156000DF92EF92FF920F931F93CF93DF93EC01E3
:101570006A017B01B22E9A01AB01C701B6010E943C
:10158000B00D882319F069E672E027C02601370103
:10159000E89477F82FEF3FEF4FE75FE7C301B20121
:1015A0000E94B00D81110DC02FEF3FEF4FE75FE7B5
:1015B000C301B2010E94FA0B18161CF46DE672E02A
:1015C0000CC02FEF3FEF4FE75FE4C701B6010E9469
:1015D000490D1816ACF461E772E0CE01DF91CF91AE
:1015E0001F910F91FF90EF90DF90CF90BF90AF9041
:1015F0009F908F907F906F905F904F900C94B70961
:101600002FEF3FEF4FE75FECC701B6010E94FA0BE7
:1016100087FDE1CF20E030E0A901C701B6010E94BB
:10162000FA0B87FF0AC06DE2CE010E94CF098C0140
:10163000F7FAF094F7F8F09402C000E010E0A12C63
:1016400060E070E080E09FE3AB1441F020E030E028
:1016500040E251E40E94FE0BA394F6CF9B01AC0143
:10166000C701B6010E94960B6B017C010E946B0CB6
:101670002B013C010E94970C9B01AC01C701B601F4
:101680000E94950B6B017C012AE0B301A201CE01FF
:101690000E94FC09080F191FBB2039F065E772E0B2
:1016A000CE010E94B709080F191F7B2C772041F14A
:1016B00020E030E040E251E4C701B6010E944D0D48
:1016C0006B017C010E94660C4B01AA2497FCA0943C
:1016D000BA2C2AE030E0B501A401CE010E94550ADF
:1016E000080F191FC501B4010E94990C9B01AC01A0
:1016F000C701B6010E94950B6B017C017A94D6CF8D
:10170000C801DF91CF911F910F91FF90EF90DF9073
:10171000CF90BF90AF909F908F907F906F905F9091
:101720004F9008950C94A70A08955058BB27AA27F4
:101730000ED075C166D130F06BD120F031F49F3FEF
:1017400011F41EF45BC10EF4E095E7FB51C1E92FE3
:1017500077D180F3BA17620773078407950718F0EB
:1017600071F49EF58FC10EF4E0950B2EBA2FA02DCB
:101770000B01B90190010C01CA01A0011124FF273E
:10178000591B99F0593F50F4503E68F11A16F04039
:10179000A22F232F342F4427585FF3CF4695379538
:1017A0002795A795F0405395C9F77EF41F16BA0BFD
:1017B000620B730B840BBAF09150A1F0FF0FBB1FAB
:1017C000661F771F881FC2F70EC0BA0F621F731FF4
:1017D000841F48F4879577956795B795F7959E3F51
:1017E00008F0B3CF9395880F08F09927EE0F9795DF
:1017F00087950895D9D008F481E008950CD00FC1E1
:1018000007D140F0FED030F021F45F3F19F0F0C076
:10181000511139C1F3C014D198F39923C9F3552359
:10182000B1F3951B550BBB27AA27621773078407D3
:1018300038F09F5F5F4F220F331F441FAA1FA9F389
:1018400033D00E2E3AF0E0E830D091505040E6957B
:10185000001CCAF729D0FE2F27D0660F771F881FDC
:10186000BB1F261737074807AB07B0E809F0BB0BCB
:10187000802DBF01FF2793585F4F2AF09E3F5105EF
:1018800068F0B6C000C15F3FECF3983EDCF386958C
:1018900077956795B795F7959F5FC9F7880F911D65
:1018A0009695879597F90895E1E0660F771F881F51
:1018B000BB1F621773078407BA0720F0621B730B04
:1018C000840BBA0BEE1F88F7E095089504D0689456
:1018D000B111D9C00895BCD088F09F5790F0B92FAE
:1018E0009927B751A0F0D1F0660F771F881F991F75
:1018F0001AF0BA95C9F712C0B13081F0C3D0B1E087
:101900000895C0C0672F782F8827B85F39F0B93F96
:10191000CCF3869577956795B395D9F73EF4909576
:101920008095709561957F4F8F4F9F4F0895E894F4
:1019300009C097FB3EF490958095709561957F4F17
:101940008F4F9F4F9923A9F0F92F96E9BB279395C5
:10195000F695879577956795B795F111F8CFFAF4D5
:10196000BB0F11F460FF1BC06F5F7F4F8F4F9F4F06
:1019700016C0882311F096E911C0772321F09EE864
:10198000872F762F05C0662371F096E8862F70E0CA
:1019900060E02AF09A95660F771F881FDAF7880FA4
:1019A0009695879597F90895990F0008550FAA0BFA
:1019B000E0E8FEEF16161706E807F907C0F0121662
:1019C0001306E407F50798F0621B730B840B950B65
:1019D00039F40A2661F0232B242B252B21F40895BA
:1019E0000A2609F4A140A6958FEF811D811D089557
:1019F00097F99F6780E870E060E008959FEF80ECC2
:101A0000089500240A941616170618060906089564
:101A100000240A9412161306140605060895092ECA
:101A20000394000C11F4882352F0BB0F40F4BF2B39
:101A300011F460FF04C06F5F7F4F8F4F9F4F089579
:101A400057FD9058440F551F59F05F3F71F047956F
:101A5000880F97FB991F61F09F3F79F08795089554
:101A6000121613061406551FF2CF4695F1DF08C073
:101A7000161617061806991FF1CF86957105610590
:101A800008940895E894BB2766277727CB0197F938
:101A900008958ADF08F48FEF08950BD0C0CFB1DF2F
:101AA00028F0B6DF18F0952309F0A2CFA7CF1124B4
:101AB000EACFC6DFA0F3959FD1F3950F50E0551FF5
:101AC000629FF001729FBB27F00DB11D639FAA2793
:101AD000F00DB11DAA1F649F6627B00DA11D661FE2
:101AE000829F2227B00DA11D621F739FB00DA11D03
:101AF000621F839FA00D611D221F749F3327A00DBD
:101B0000611D231F849F600D211D822F762F6A2F58
:101B100011249F5750408AF0E1F088234AF0EE0FDD
:101B2000FF1FBB1F661F771F881F91505040A9F7EA
:101B30009E3F510570F05CCFA6CF5F3FECF3983E1F
:101B4000DCF3869577956795B795F795E7959F5F51
:101B5000C1F7FE2B880F911D9695879597F90895EB
:101B600023DF880B990B0895A1E21A2EAA1BBB1B39
:101B7000FD010DC0AA1FBB1FEE1FFF1FA217B30759
:101B8000E407F50720F0A21BB30BE40BF50B661F6F
:101B9000771F881F991F1A9469F760957095809533
:101BA00090959B01AC01BD01CF010895EE0FFF1F81
:101BB0000590F491E02D19940790F691E02D199479
:041BC000F894FFCFC7
:101BC4000800014164616672756974204D4C58398E
:101BD4003036313420746573740070706D00416D5B
:101BE4006269656E74203D20002A43094F626A656C
:101BF4006374203D20002A43002A46094F626A6527
:101C04006374203D20002A460000000000F602C94B
:101C1400029E02A602B902C802000000000B088F4F
:101C2400095E0777076907E9076E616E00696E66EA
:081C3400006F7666002E00002F
:00000001FF
