:100000000C947A010C94A2010C94A2010C94A2010C
:100010000C94A2010C94A2010C94A2010C94A201D4
:100020000C94A2010C94A2010C9499090C946708F9
:100030000C94A2010C94A2010C94A2010C94A201B4
:100040000C94A2010C94A2010C94A2010C94A201A4
:100050000C94A2010C94A2010C94A2010C940C0229
:100060000C94A2010C94A2010C94A2010C94A20184
:100070000C94A2010C94A2010C94A2010C94A20174
:100080000C94A2010C94A2010C94A2010C94A20164
:100090000C94A2010C94A2010C94A2010C94A20154
:1000A0000C94A2010C94A2010C94A2014E035303E0
:1000B000580362036C03B603B603B60376038003EA
:1000C0008A039403A103B603A903D703DA03C90380
:1000D000CD03D303FB03FB03FB03DE03E203E603D1
:1000E000EC03F003FB03F603070605040100080A0E
:1000F0000B0C0D090000000200090F0000030401B1
:10010000000C0000000000000000000000000000E3
:100110000000040802011040804010204080408010
:10012000080204018040201002011080102040408D
:10013000040404040403040502020202040302028C
:100140000202060606060606040402020204000075
:100150000000250028002B002E00310000000000C8
:10016000240027002A002D003000080B00020202A4
:100170000100090400000102020000052400100132
:1001800005240101010424020605240600010705D7
:10019000810310004009040100020A000000070565
:1001A00002024000000705830240000000C1808178
:1001B000C112010002020000404123418000010100
:1001C00002000112010002000000404123418000B2
:1001D000010102000141726475696E6F204C4C434D
:1001E0000041726475696E6F2059756E00040309D1
:1001F0000400000000000000002A2B28000000007E
:1002000000000000000000000000000000000000EE
:10021000002C9EB4A0A1A2A434A6A7A5AE362D376B
:1002200038271E1F20212223242526B333B62EB7BC
:10023000B89F8485868788898A8B8C8D8E8F9091D4
:1002400092939495969798999A9B9C9D2F3130A361
:10025000AD350405060708090A0B0C0D0E0F101129
:1002600012131415161718191A1B1C1DAFB1B0B5AF
:10027000000904020001030000000921010100013E
:100280002265000705840340000105010902A10160
:100290000901A1008501050919012903150025019E
:1002A00095037501810295017505810305010930EA
:1002B000093109381581257F750895038106C0C06D
:1002C00005010906A1018502050719E029E71500C6
:1002D0002501750195088102950175088103950630
:1002E0007508150025650507190029658100C000FE
:1002F0002E058B0B11241FBECFEFDAE0DEBFCDBF82
:1003000011E0A0E0B1E0E6E1F8E102C005900D9255
:10031000A434B107D9F721E0A4E4B1E001C01D92F3
:10032000A73BB207E1F712E0C4EFD2E004C0229786
:10033000FE010E94EB0BC03FD107C9F70E944C059C
:100340000C94090C0C94000040E855E260E070E069
:1003500081E591E00C942805AF92BF92CF92DF9295
:10036000EF92FF920F931F9382E10E94F702909306
:10037000470180934601BC01882777FD8095982F1F
:100380001F921F921F922FEF2F93A12CB12C65016A
:10039000EE24EA9413E0F12E00E010E020E030E0DB
:1003A000A9010E940D0A70934501609344018DE0FC
:1003B0000E9428036FE071E081E591E00E949D05B5
:1003C00060914601709147014AE050E081E591E07B
:1003D0000E945D0669E171E081E591E00E949D0562
:1003E00060914401709145014AE050E081E591E05F
:1003F0000E9465060F900F900F900F9062E070E0E2
:1004000080E090E01F910F91FF90EF90DF90CF90F0
:10041000BF90AF900C9479021F920F920FB60F927B
:1004200011242F933F938F939F93AF93BF9380910A
:10043000490190914A01A0914B01B0914C0130913A
:10044000480123E0230F2D3720F40196A11DB11D93
:1004500005C026E8230F0296A11DB11D2093480177
:100460008093490190934A01A0934B01B0934C01B2
:1004700080914D0190914E01A0914F01B09150019A
:100480000196A11DB11D80934D0190934E01A09343
:100490004F01B0935001BF91AF919F918F913F91C8
:1004A0002F910F900FBE0F901F9018953FB7F894A3
:1004B00080914D0190914E01A0914F01B09150015A
:1004C00026B5A89B05C02F3F19F00196A11DB11DAF
:1004D0003FBF6627782F892F9A2F620F711D811DCC
:1004E000911D42E0660F771F881F991F4A95D1F72B
:1004F0000895CF92DF92EF92FF92CF93DF936B013B
:100500007C010E945602EB01C114D104E104F10404
:1005100089F00E94540A0E9456026C1B7D0B683EB3
:10052000734090F381E0C81AD108E108F108C8517E
:10053000DC4FEACFDF91CF91FF90EF90DF90CF902B
:100540000895789484B5826084BD84B5816084BD4B
:1005500085B5826085BD85B5816085BDEEE6F0E03C
:10056000808181608083E1E8F0E010828081826098
:100570008083808181608083E0E8F0E08081816019
:100580008083E1E9F0E08081826080838081816006
:100590008083E0E9F0E0808181608083E1ECF0E03D
:1005A000808184608083808182608083808181609B
:1005B0008083E3ECF0E0808181608083E0ECF0E018
:1005C000808182608083E2ECF0E0808181608083C2
:1005D000EAE7F0E0808184608083808182608083AC
:1005E00080818160808380818068808308958231EA
:1005F00008F08251E82FF0E0E851FF4FE49180913C
:100600007B00E3FB222720F930E095E0220F331F27
:100610009A95E1F78F7D822B80937B00E770809124
:10062000040120E4829FC0011124E82BE0937C00A8
:1006300080917A00806480937A0080917A0086FDB0
:10064000FCCF809178002091790090E0922B089562
:100650001F93CF93DF93182FEB0161E00E94FC03FF
:10066000209711F460E004C0CF3FD10539F461E078
:10067000812FDF91CF911F910C943504E12FF0E091
:10068000EC50FF4F449150E0FA013197EF30F10503
:1006900008F06CC0EA5AFF4F0C94E90B84B58068EF
:1006A00084BDC7BD68C084B5806284BDC8BD63C059
:1006B00080918000806880938000D0938900C093EF
:1006C000880059C080918000806280938000D09320
:1006D0008B00C0938A004FC0809180008860809317
:1006E0008000D0938D00C0938C0045C08091900015
:1006F000806880939000D0939900C09398003BC08D
:1007000080919000806280939000D0939B00C09372
:100710009A0031C080919000886080939000D093BF
:100720009D00C0939C0027C08091C000806880938A
:10073000C0008091C0008F7B8093C000C093CF0029
:100740001AC08091C00080628093C000C093D00026
:1007500012C08091C20088608093C2008091C20064
:100760008B7F8093C200C093D20005C0C038D105F2
:100770000CF07DCF77CFDF91CF911F91089590E05E
:10078000FC013197EF30F105B0F5EB59FF4F0C94B8
:10079000E90B809180008F7703C0809180008F7D6E
:1007A00080938000089580918000877FF9CF84B581
:1007B0008F7702C084B58F7D84BD089580919000AD
:1007C0008F7707C0809190008F7D03C0809190004B
:1007D000877F8093900008958091C0008F7703C039
:1007E0008091C0008F7D8093C00008958091C200E9
:1007F000877F8093C2000895CF93DF9390E0FC0140
:10080000EE5EFE4F2491FC01E05DFE4F8491882353
:1008100049F190E0880F991FFC01E45AFE4FA59121
:10082000B491825B9E4FFC01C591D4919FB7611139
:1008300008C0F8948C91209582238C938881822320
:100840000AC0623051F4F8948C91322F3095832392
:100850008C938881822B888304C0F8948C91822B9E
:100860008C939FBFDF91CF9108950F931F93CF93E8
:10087000DF931F92CDB7DEB7282F30E0F901EC509F
:10088000FF4F8491F901EE5EFE4F1491F901E05D96
:10089000FE4F04910023C9F0882321F069830E9450
:1008A000BF036981E02FF0E0EE0FFF1FE25BFE4F18
:1008B000A591B4919FB7F8948C91611103C01095E4
:1008C000812301C0812B8C939FBF0F90DF91CF912B
:1008D0001F910F910895CF93DF931F92CDB7DEB78D
:1008E0006983DC01ED91FC910280F381E02D41E010
:1008F00050E0BE016F5F7F4F09950F90DF91CF9160
:100900000895CF93DF93EC018C859D8597FF05C0FB
:1009100082E00E943C079D878C878C859D85DF91B6
:10092000CF91089583E00C948F09FC01848595850F
:1009300097FD06C082E00E94E40690E001960895CB
:1009400082E00E94E40690E00895FC01848595858C
:1009500097FD05C02FEF3FEF35872487089582E08C
:100960000C943C07CF93DF93EC0180910C0188231A
:1009700031F083E00E946D071816190634F081E00B
:1009800090E09B838A8380E090E0DF91CF9108958F
:10099000FC0120812E5F208342E450E06AE671E092
:1009A00080E80C940808FC0181819081913A59F407
:1009B000813209F03CC047E050E065E071E080E042
:1009C0000E94080843C0913291F5803239F467E003
:1009D00070E085E091E00E94390806C0823209F09B
:1009E00035C0828180930C018091050190910601B0
:1009F000A0910701B0910801803B9440A105B10589
:100A0000C1F480910C0180FD14C087E797E79093B3
:100A10000108809300082BE088E190E00FB6F8947D
:100A2000A895809360000FBE209360000FC080E007
:100A3000089588E10FB6F8948093600010926000EA
:100A40000FBEA895109201081092000881E0089549
:100A50002FEF3FEFFC013587248708951092540152
:100A60001092530188EE93E0A0E0B0E0809355012E
:100A700090935601A0935701B093580189E291E0F9
:100A800090935201809351018FEF9FEF90935E01FD
:100A900080935D01089508950E94A1020E944B0574
:100AA00081EA91E00E94EF090E94A401C0E0D0E039
:100AB0000E94AC012097E1F30E940000F9CFCF9291
:100AC000DF92EF92FF920F931F93CF93DF936C010E
:100AD0007A01EB01E60EF71E00E010E0CE15DF050F
:100AE00061F06991D601ED91FC910190F081E02DCA
:100AF000C6010995080F191FF1CFC801DF91CF91E9
:100B00001F910F91FF90EF90DF90CF9008956115A6
:100B1000710581F0DB010D900020E9F7AD01415036
:100B20005109461B570BDC01ED91FC910280F381CA
:100B3000E02D099480E090E008950C948705DC0195
:100B4000ED91FC910190F081E02D09940F931F939A
:100B5000CF93DF93EC016DE00E949F058C016AE06A
:100B6000CE010E949F05800F911FDF91CF911F91B1
:100B70000F9108958F929F92AF92BF92CF92DF9282
:100B8000EF92FF920F931F93CF93DF93CDB7DEB712
:100B9000A1970FB6F894DEBF0FBECDBF7C01C42E67
:100BA000E52FCB01D22E19A221E02D1510F02AE05D
:100BB000D22E8E010F5D1F4F8D2C912CA12CB12CAC
:100BC0006C2D7E2FA50194010E94A80B8C2DD29E26
:100BD00080191124015011098A3014F4805D01C07C
:100BE000895CF8018083211531054105510521F00B
:100BF000C22EE32FCA01E4CFB801C7010E948705C6
:100C0000A1960FB6F894DEBF0FBECDBFDF91CF9196
:100C10001F910F91FF90EF90DF90CF90BF90AF901A
:100C20009F908F900895CF92DF92EF92FF920F9353
:100C30001F93CF93DF93EC016A017B0121153105EE
:100C400079F4E881F9810190F081E02D642FDF9142
:100C5000CF911F910F91FF90EF90DF90CF9009946B
:100C60002A303105E9F477FF1AC06DE20E949F0532
:100C70008C0144275527BA014C195D096E097F097B
:100C80002AE0CE010E94BA05800F911FDF91CF911B
:100C90001F910F91FF90EF90DF90CF9008952AE081
:100CA000B701A601CE01DF91CF911F910F91FF9067
:100CB000EF90DF90CF900C94BA059A01AB016627B4
:100CC00057FD6095762F0C9413060F931F93CF93C7
:100CD000DF93EC019A01AB01662757FD6095762FF3
:100CE0000E9413068C01CE010E94A605800F911F61
:100CF000DF91CF911F910F9108954091A5015091DF
:100D0000A6012091A3013091A40142175307B4F426
:100D10009091E8009570E1F39091E80092FD19C080
:100D20008093F1008091A5019091A60101968F73A7
:100D30009927892B19F48EEF8093E8008091A50103
:100D40009091A60101969093A6018093A50181E060
:100D5000089580E00895FF920F931F93CF93DF9340
:100D60008C0188E10E947D0683E00E947D06C0E040
:100D7000D0E0F801EC0FFD1F84910E947D06F82E53
:100D800080E00E947D068F2121F02196CB30D10595
:100D900081F7DF91CF911F910F91FF9008956150DE
:100DA00030F02091F100FC0120830196F8CF2898C3
:100DB00084E68093A80108952FB7FC012083F8945E
:100DC00067706093E9000895CF93DF931F92CDB7CA
:100DD000DEB7682FCE0101960E94DC068091F200FA
:100DE00099819FBF0F90DF91CF910895FF920F934C
:100DF0001F93CF93DF9300D0CDB7DEB7F62E8A01D5
:100E00009091A701992311F057FF03C08FEF9FEF37
:100E10002BC0682FCE0101967A830E94DC06809158
:100E2000F20090E0A8017A81801791070CF4AC01E0
:100E3000EF2DF72FF40E84E6FE1639F028988093F4
:100E4000A8019091F1009193F7CF4115510521F040
:100E50008091F200882321F089818FBFCA0104C0EC
:100E60008BE68093E800F8CF0F900F90DF91CF9141
:100E70001F910F91FF900895CF93DF931F92CDB7ED
:100E8000DEB741E050E0BE016F5F7F4F0E94F60683
:100E9000019719F4898190E002C08FEF9FEF0F90C6
:100EA000DF91CF910895CF93DF931F92CDB7DEB737
:100EB000682FCE0101960E94DC069091E800892FF0
:100EC000807295FF04C09091F20080E4891B9981A3
:100ED0009FBF0F90DF91CF9108956F927F928F9275
:100EE0009F92AF92BF92CF92DF92EF92FF920F93B9
:100EF0001F93CF93DF931F92CDB7DEB7782E7B0180
:100F0000C42EB52E8091A701882369F0042F152FD8
:100F10008AEFD82E872D8072982E9AE3A92E872DDE
:100F20008074882E11C08FEF9FEF57C0872D0E94CD
:100F30005307682E81110CC0DA94A9F361E070E0C8
:100F400080E090E00E9479020115110579F73BC01D
:100F5000282F30E0021713070CF4602E672DCE0106
:100F600001960E94DC068091E80085FF29C0262DAD
:100F700030E0021B130B992039F06A948FEF68164A
:100F8000B1F01092F100F9CFF701862D77FE07C07E
:100F9000815058F094919093F1003196F9CF81509F
:100FA00020F091919093F100FACFE20EF31E809120
:100FB000E80085FF0FC00115110511F481100AC06A
:100FC00089818FBFC1CF5D9884E68093A9018C2D64
:100FD0009B2D03C0A092E800F3CF0F90DF91CF913B
:100FE0001F910F91FF90EF90DF90CF90BF90AF9047
:100FF0009F908F907F906F9008951092E9001092CB
:10100000A6011092A5019093A4018093A3010895D5
:10101000CF92DF92FF920F931F93CF93DF9300D075
:10102000CDB7DEB7F82E8A016B0101151105B1F0BD
:10103000F601F7FE02C0849101C0808149835A8382
:101040000E947D0601501109FFEFCF1ADF0A498186
:101050005A818111EACF8FEF9FEF01C0CA010F9033
:101060000F90DF91CF911F910F91FF90DF90CF9064
:1010700008951F93CF93DF931F92CDB7DEB7162F3E
:101080002091E80022FFFCCF612F79830E94CF06D8
:101090008BEF8093E800812F7981972F0F90DF915C
:1010A000CF911F910895CF93DF931F92CDB7DEB7F5
:1010B0001982CE0101960E94C804CE0101960E94B9
:1010C000730A898190E00F90DF91CF9108951F926C
:1010D0000F920FB60F921124EF92FF920F931F936E
:1010E0002F933F934F935F936F937F938F939F9330
:1010F000AF93BF93EF93FF93CF93DF93CDB7DEB75B
:101100006297DEBFCDBF1092E9008091E80083FFB7
:10111000E9C068E0CE010A960E94CF0682EF809374
:10112000E8009A8597FF05C08091E80080FFFCCF1A
:1011300003C08EEF8093E800892F807609F0B7C056
:101140008B85811105C01092F1001092F100C3C08F
:10115000282F2D7F213009F4BEC0853049F48091BD
:10116000E80080FFFCCF8C8580688093E300B3C0EB
:10117000863009F074C02D85E888F988223071F531
:1011800080E090E02A8B0E94FD070E94530899E0BE
:101190008E010F5F1F4FF801392F11923A95E9F731
:1011A00099832A892A8391E09E8390E898879AEF11
:1011B00099872091A5013091A601275F3F4F3C837D
:1011C0002B838D83C7010E94FD0749E050E0B801E1
:1011D00080E00E9408080E9453087DC0C7012A8B46
:1011E0000E94FD072A89223241F482E290E00E94A7
:1011F0007E0A892B09F06FC072C0213069F488899A
:101200009989089711F42093A2018091A20181117C
:1012100016C063EC71E018C0233009F060C08C8503
:10122000882381F0823019F481EE91E005C081308D
:1012300009F055C085ED91E00E94AB064AC061EB14
:1012400071E002C06DEE71E06115710509F447C0EF
:10125000FB01449150E080E80E9408083CC08730C0
:1012600009F43DC0883021F481E08093F10033C05F
:10127000893089F5937099F5EDEAF1E081E021E09C
:1012800096E38093E9002093EB0034913093EC00D7
:101290009093ED008F5F3196853099F78EE78093BC
:1012A000EA001092EA008C858093A70114C0888917
:1012B00099890E94FD078E85811105C0CE010A968D
:1012C0000E94D30406C0823051F4CE010A960E94D7
:1012D000A60A882321F08EEF8093E80003C081E204
:1012E0008093EB0062960FB6F894DEBF0FBECDBFC1
:1012F000DF91CF91FF91EF91BF91AF919F918F912E
:101300007F916F915F914F913F912F911F910F911D
:10131000FF90EF900F900FBE0F901F901895809345
:10132000E9008091F200882319F08AE38093E800B5
:1013300008951F920F920FB60F9211242F933F938F
:101340004F935F936F937F938F939F93AF93BF93CD
:10135000EF93FF938091E1001092E10083FF0FC0B3
:101360001092E90091E09093EB001092EC0092E370
:101370009093ED001092A70198E09093F00082FF07
:101380001DC083E00E948F098091A901882339F054
:101390008091A90181508093A901882369F08091EF
:1013A000A801882359F08091A80181508093A80159
:1013B000811104C0289A02C05D9AF1CFFF91EF918C
:1013C000BF91AF919F918F917F916F915F914F915D
:1013D0003F912F910F900FBE0F901F901895109274
:1013E000A70181E08093D70080EA8093D80082E152
:1013F00089BD09B400FEFDCF61E070E080E090E0BF
:101400000E94790280E98093D8008CE08093E2000A
:101410001092E000559A209A08954F925F926F9231
:101420007F92AF92BF92CF92DF92EF92FF920F9393
:101430001F93CF93DF93CDB7DEB729013A01621B2B
:10144000730B840B950B29893A894B895C892A197E
:101450003B094C095D09298B3A8B4B8B5C8B9B01BB
:10146000AC0169897A898B899C890E94980BE41860
:10147000F50806091709A80197010E94CA0B2A0D51
:101480003B1D4C1D5D1DCA01B901DF91CF911F911C
:101490000F91FF90EF90DF90CF90BF90AF907F9033
:1014A0006F905F904F9008950895FF920F931F9350
:1014B000CF93DF93EC01F62EE881F9810480F5816A
:1014C000E02D09958C01E881F9810680F781E02DF6
:1014D0006F2DCE010995C8019927DF91CF911F91FA
:1014E0000F91FF900895FC0120812F5F208349E137
:1014F00050E061E772E080E80C94080845E650E0AF
:101500006AE872E080E80C940808EF92FF920F936B
:101510001F93CF93DF931F92CDB7DEB789838B01E3
:101520007A0141E050E0BE016F5F7F4F84E00E948E
:101530006D07A701B80184E40E946D070F90DF9149
:10154000CF911F910F91FF90EF900895FC01918131
:101550008081813A31F481E0913091F0933089F4C7
:1015600011C0813271F49B3021F4828180930E018D
:1015700005C09A3031F4828180930D0181E0089595
:10158000089580E0089548E050E082E00C94850AD8
:10159000CF93DF93DC01683818F0E8E7E60F25C049
:1015A000E62FF0E067FF11C0E058F10981E090E01C
:1015B00001C0880FEA95EAF714969C911497982B2E
:1015C00014969C931497E0E010C0EF50FE4FE49106
:1015D000EE2309F440C0E7FF08C014968C911497DD
:1015E000826014968C931497EF7716968C911697C9
:1015F0008E1741F117968C9117978E1719F118963F
:101600008C9118978E17F1F019968C9119978E1767
:10161000C9F01A968C911A978E17A1F01B968C918F
:101620001B978E1779F080E090E0ED01C80FD91F6D
:101630002E81211102C0EE8305C0019686309105EE
:10164000A1F709C0BD016C5F7F4FCD010E94C30AA5
:1016500081E090E008C081E090E013969C938E9327
:10166000129780E090E0DF91CF910895683818F0EC
:10167000E8E7E60F25C0E62FF0E067FF12C0E0586C
:10168000F10921E030E001C0220FEA95EAF7209548
:10169000DC0114963C911497322314963C93E0E0BD
:1016A0000FC0EF50FE4FE491EE2329F1E7FF08C091
:1016B000DC0114962C9114972D7F14962C93EF77C0
:1016C00020E030E0EE2351F0DC01A20FB31F1696AC
:1016D0004C9116974E1302C016961C922F5F3F4FE7
:1016E0002630310579F7BC016C5F7F4F0E94C30A39
:1016F00081E090E0089580E090E00895FC0116827A
:10170000178210861186128613861482BC016C5FC4
:101710007F4F0C94C30A1092B6011092AD01109243
:10172000AC0189E391E09093AB018093AA01089505
:10173000DB018F939F930E94EF0BBF91AF91A29F0C
:10174000800D911DA39F900DB29F900D11240895BF
:10175000A1E21A2EAA1BBB1BFD010DC0AA1FBB1FB5
:10176000EE1FFF1FA217B307E407F50720F0A21B27
:10177000B30BE40BF50B661F771F881F991F1A9494
:1017800069F760957095809590959B01AC01BD01BE
:10179000CF010895052E97FB1EF400940E94E10BE3
:1017A00057FD07D00E94A80B07FC03D04EF40C9401
:1017B000E10B50954095309521953F4F4F4F5F4F2E
:1017C000089590958095709561957F4F8F4F9F4FAD
:1017D0000895EE0FFF1F0590F491E02D09940E94EB
:1017E000FA0BA59F900DB49F900DA49F800D911DA5
:1017F00011240895A29FB001B39FC001A39F700D53
:10180000811D1124911DB29F700D811D1124911D08
:061810000895F894FFCFDB
:10181600010000000100E10000000000000101736A
:10182600656E736F72203D200009206F75747075A8
:1018360074203D2000000000006B04B2049504A54E
:10184600048104920400000000550A5F05C80A36A8
:041856000B7E0B00FA
:00000001FF
